:020000040800F2
:1000000030050020DD010008471A0008CB17000862
:10001000451A0008C50600089F1F000800000000E0
:100020000000000000000000000000002F1B00087E
:10003000C7060008000000002D1B0008311B000847
:10004000F7010008F7010008F7010008F7010008B0
:10005000F7010008F7010008F7010008F7010008A0
:10006000F7010008C9060008F7010008F7010008B9
:10007000F7010008F7010008F7010008F701000880
:10008000F7010008F7010008F7010008F701000870
:10009000F7010008F7010008F7010008F701000860
:1000A000F7010008F7010008F7010008F701000850
:1000B000F7010008F7010008F7010008F701000840
:1000C000F7010008F7010008F7010008F701000830
:1000D000F7010008F7010008F7010008F701000820
:1000E000F7010008F7010008F7010008F701000810
:1000F000F7010008F7010008F7010008F701000800
:10010000F7010008F7010008D91B0008F7010008F3
:10011000F7010008F7010008F7010008F7010008DF
:10012000F7010008F7010008F7010008F7010008CF
:10013000F7010008F7010008F7010008F7010008BF
:10014000F7010008F7010008F7010008F7010008AF
:10015000F7010008F7010008F7010008F70100089F
:10016000F7010008F7010008F7010008F70100088F
:10017000F7010008F7010008F7010008000000007F
:10018000F7010008F7010008F7010008F70100086F
:10019000F7010008F7010008F7010008F70100085F
:1001A000F7010008F7010008F7010008F70100084F
:1001B000F7010008F7010008F7010008F70100083F
:1001C000F7010008F7010008DFF80CD000F068FA2A
:1001D00000480047DD200008300500200648804721
:1001E00006480047FEE7FEE7FEE7FEE7FEE7FEE71C
:1001F000FEE7FEE7FEE7FEE7BD1B0008C9010008B9
:100200002DE9F05F0546002092469B46884606464B
:10021000814640241BE0284641464746224600F0DE
:1002200089F953465A46C01A914110D311461846CF
:10023000224600F070F92D1A67EB01084F4622465E
:100240000120002100F067F917EB00094E41201E44
:10025000A4F10104DFDC484631462A464346BDE8A6
:10026000F09FD2B201E000F8012B491EFBD270478B
:100270000022F6E710B513460A4604461946FFF772
:10028000F0FF204610BD2DE9FE4F804681EA0300B5
:10029000C00F0C46009021F0004123F00045B8EB60
:1002A0000200A94105D24046214690461C460B4615
:1002B000024623F00040104347D0270DC7F30A0041
:1002C000C3F30A510290401A019040286BDAC3F33D
:1002D000130040F4801B0098924620B10023D2EB1B
:1002E000030A63EB0B0B01985946C0F140025046DC
:1002F00000F011F906460D4650465946019A00F0A5
:1003000029F910EB08006141002487EA115284EAC0
:10031000E7731A4340D0009A62B3019A012A4FEA68
:10032000075215DC001B61EB02014FF0004202EAAC
:100330000752CDE90042001C41F5801132462B46A0
:1003400000F060F903B0BDE8F08F40462146F9E7C0
:10035000001B61EB0201001C41F5801300185B419A
:100360002018A2F5001747EB030140EAD570B61933
:100370006D4111E06D084FEA360645EAC0754FEA57
:100380000752001B61EB0201001C41F58011490876
:100390004FEA30000019514132462B4603B0BDE808
:1003A000F04F00F020B90098012240000023D0EB6C
:1003B000020263EBE073009821464FEAE074B8EB69
:1003C000000061EB0401E9E783F000435BE781F0A3
:1003D000004158E72DE9FE4F81EA030404F0004490
:1003E00021F0004100944FF0000B23F0004350EA4D
:1003F00001045ED052EA03045BD0C3F30A54C1F394
:100400000A552C44A4F2F3340194A0FB0254C1F326
:10041000130141F48011C3F3130343F4801301FB70
:10042000024400FB034E840A970A44EA815447EAD7
:100430008357A4FB076802958D0A05FB07854FEAE1
:10044000932C04FB0C542705029D4FEA065847EAFB
:100450001637B5EB08056EEB070C870E920E47EAD0
:10046000811742EA8312A7FB0201B6EB0B0164EB92
:1004700000042B0D43EA0C335E1844EB1C50DA46A3
:100480005146E7FB0201C5F313044FEA0B3343EA7D
:1004900014534FEA0432019C43EA0603A4F10C040E
:1004A0000294009CCDE900B400F0ACF803B0BDE8C4
:1004B000F08F00200146F9E700F0004230F00040E4
:1004C0000AD0C10D01F56071C0F3160042EA015176
:1004D000C20840071143704700200146704701F0F1
:1004E000004330B421F0004150EA010206D00A0D69
:1004F000A2F56072C1F31301002A02DC30BC0020B7
:100500007047440F44EAC104C100E01830BC00EB5E
:10051000C25000F031B8202A04DB203A00FA02F180
:10052000002070479140C2F1200320FA03F31943E1
:1005300090407047202A04DB203A21FA02F0002183
:10054000704721FA02F3D040C2F1200291400843E3
:1005500019467047202A06DBCB17203A41FA02F0F1
:1005600043EAE07306E041FA02F3D040C2F1200210
:1005700091400843194670470029A8BF7047401CA6
:10058000490008BF20F00100704710B4B0FA80FCA9
:1005900000FA0CF050EA010404BF10BC704749B1E6
:1005A000CCF1200421FA04F411FA0CF118BF012156
:1005B00021430843A3EB0C01CB1D4FEA00614FEA36
:1005C000102042BF002010BC704700EBC350104405
:1005D0000029A4BF10BC7047401C490008BF20F090
:1005E000010010BC704710B5141E73F1000408DA46
:1005F000401C41F1000192185B411A4301D120F0E7
:10060000010010BD2DE9F04D92469B4611B1B1FAA3
:1006100081F202E0B0FA80F220329046FFF77BFFD1
:1006200004460F4640EA0A0041EA0B0153465A4687
:10063000084313D0114653EA010019D0C8F1400213
:100640005046FFF777FF05460E465046594642464C
:10065000FFF761FF084305D0012004E0204639463A
:10066000BDE8F08D0020054346EAE0762C43374391
:100670000A986305E40AA0EB08000022FD0A44EA98
:1006800047540A3002D500200146E9E70105101958
:100690006941DDE9084500196941BDE8F04DA2E76F
:1006A000064C074D06E0E06840F0010394E80700BF
:1006B00098471034AC42F6D3FFF78AFDDC210008DE
:1006C000FC210008FEE77047082000F00FB87047D3
:1006D00004484FF4804110B500F000F90249C820E9
:1006E000086010BD0004024024040040044910B515
:1006F0000A68024202D00860FFF7EAFF10BD00005E
:10070000143C01402DE9F84F00224FF001094FF051
:10071000030A4FF00F0E00BF0B6809FA02F42340E2
:10072000A34270D14D68012D05D0022D03D0112DAB
:1007300001D0122D11D185685700CE680AFA07FC46
:1007400025EA0C05BE402E43866045680E79A54318
:10075000C6F3001696402E434660C56856008F6863
:100760000AFA06F4A543B7402F43C7604D68022D2F
:1007700001D0122D12D1D5080F694FEA427C00EB4F
:100780008505AB462D6A4FEADC6C0EFA0CF807FAC9
:100790000CF725EA08052F43CBF820700D79076880
:1007A00005F00305A743B5403D4305604C68E400F0
:1007B00074D53D4C256845F480452560246822F0B9
:1007C0000307960704F480440094384C360F2744FE
:1007D000D7F80848DFF8D8C00EFA06F5604524EAD5
:1007E000050401D100252EE0324DA84201D101259A
:1007F00029E0314DA84201D1022524E02F4DA84225
:1008000002D103251FE049E02D4DA84201D1042566
:1008100019E02C4DA84201D1052514E02A4DA8422B
:1008200001D106250FE0294DA84201D107250AE094
:10083000274DA84201D1082505E0264DA84201D147
:10084000092500E00A25B540234E2543C7F808587E
:100850004D683468ED0324EA030400D51C431E4DA3
:1008600034602D1D4E682C68B60324EA030400D5BD
:100870001C43194E2C6008364D683468ED0224EA9A
:10088000030400D51C43144D34600C354E682C68AD
:10089000B60224EA030400D51C432C60521C102A23
:1008A000FFF43AAFBDE8F88F443802400030014011
:1008B000000002400004024000080240000C024018
:1008C000001002400014024000180240001C0240C8
:1008D0000020024000240240003C014042690A42DC
:1008E00000D00904816170470AB181617047090431
:1008F000FBE7000001488068704700001C000020F2
:100900000248816802781144816070471C00002011
:10091000032010B500F06EF8002000F005F800F09C
:1009200023F8002010BD000070B50D4D04464FF4B3
:100930007A700C4A29781268B0FBF1F0B2FBF0F043
:1009400000F02CFB48B9102C07D200222146501E83
:1009500000F030F800206C6070BD012070BD000018
:100960001C000020280000200A4808B5016841F05A
:1009700080510160006800F0805000900548001D23
:10098000016841F480410160006800F480400090FB
:1009900008BD000040380240002809DB410900F092
:1009A0001F028900012001F1E0219040C1F80001FF
:1009B000704700000E4BF0B41B680D46C3F30223D2
:1009C000C3F10706042E00D90426191D072901D2F8
:1009D000002300E0DB1E012404FA06F19C40491EBE
:1009E0002940641E994014402143F0BC01F0D8BA5C
:1009F0000CED00E0064900F0070210B54FF6FF04C9
:100A00000868044B204040EA02201843086010BDEB
:100A10000CED00E00000FA051848F8B5016841F057
:100A2000805101600068164C00F0805000902068F2
:100A300040F480302060FFF75DFF4FF47A76054682
:100A400005E000BFFFF756FF401BB0420FD86068BB
:100A5000C003F7D5206840F400302060FFF74AFF5C
:100A6000054606E0FFF746FF401BB04201D90320D0
:100A7000F8BD60688003F5D50020F8BD403802401D
:100A8000007000402DE9F04705000F4663D0444E4A
:100A9000306800F00F00B84209D2306820F00F0033
:100AA00038433060306800F00F00B84253D12868F6
:100AB0003C4C810712D5400703D5206840F4E05034
:100AC00020602878000703D5206840F4604020604B
:100AD000A968206820F0F000084320602878C0074B
:100AE0002AD0304968680839012810D009680228DE
:100AF00010D0890700292EDA216821F00301014373
:100B00002160FFF7F7FE804641F288390DE0096861
:100B10008903EFE78901EDE7FFF7ECFEA0EB0801A1
:100B2000494502D90320BDE8F0876868216801F0D3
:100B30000C01B1EB800FEFD1306800F00F00B8422C
:100B40000BD9306820F00F0038433060306800F077
:100B50000F00B84201D00120E5E72878400705D50D
:100B6000E968206820F4E0500843206028780007F6
:100B700006D52869216821F4604141EAC00020605F
:100B800000F018F82168084AC1F30311515CC8400D
:100B90000649086006480068FFF7C6FE0020C2E765
:100BA000003C024008380240CC2100082800002008
:100BB00020000020154910B51548096811F00C02F5
:100BC00013D01449042A0FD0082A0ED10F4C241F29
:100BD0002268236802F03F025B0207D52068C0F359
:100BE0008810A0FB010106E0084610BD2168C1F392
:100BF0008811A1FB00010023FFF702FB2168C1F36C
:100C00000141491C4900B0FBF1F010BD0838024019
:100C10000024F40040787D012DE9F84F04004FF0E6
:100C200000076ED02078DFF868A3AAF10408C00797
:100C3000A8F104054CD0DAF800105046C1F3810148
:100C4000012908D00068C0F3810002280AD1D8F831
:100C50000000400206D52868800339D56068002866
:100C6000DFD035E06068B0F5803F0BD010B1B0F553
:100C7000A02F11D0286820F480302860286820F444
:100C8000802002E0286840F480302860606890B1DD
:100C9000FFF730FE06460AE0286840F4802028600E
:100CA000F0E700BFFFF726FE801B642872D8286893
:100CB0008003F7D50CE0FFF71DFE064605E000BFF8
:100CC000FFF718FE801B6428F0D828688003F7D44B
:100CD0002078800742D5DAF80010504611F00C0F4A
:100CE00008D00068C0F3810002280BD1D8F80000BA
:100CF000400207D42868800718D5E068012800D191
:100D000014E041E1E0680028286817D040F00100B5
:100D10002860FFF7EFFD064605E000BFFFF7EAFD9C
:100D2000801B0228C2D828688007F7D52069296867
:100D300021F0F80141EAC00028600FE020F0010036
:100D40002860FFF7D7FD064605E000BFFFF7D2FD9C
:100D5000801B02281ED828688007F7D42078000757
:100D600029D58B4861696C3000298146016812D011
:100D700041F001010160FFF7BDFD064605E000BF3F
:100D8000FFF7B8FD801B022804D8D9F800008007BF
:100D9000F6D510E089E021F001010160FFF7AAFD1E
:100DA000064604E0FFF7A6FD801B02287DD8D9F88F
:100DB00000008007F6D4207840076BD5DFF8D0918B
:100DC00009F13809D9F80000C0000BD4D9F8001097
:100DD00041F08051C9F80010D9F80000012700F057
:100DE000805000906B480168C90512D401688346A1
:100DF00041F480710160FFF77DFD064605E000BF0C
:100E0000FFF778FD801B64284FD8DBF80000C00591
:100E1000F6D55F4EA068683601280AD008B10528CB
:100E200011D0306820F001003060306820F00400FC
:100E300002E0306840F001003060A068A0B1FFF728
:100E400059FD83460CE0306840F004003060F0E764
:100E5000FFF750FDA0EB0B0141F28830814266D8CC
:100E600030688007F4D50EE0FFF744FD834607E0C5
:100E7000FFF740FDA0EB0B0141F28830814256D8CC
:100E800030688007F4D42FB1D9F8001021F08051D8
:100E9000C9F80010A069C8B3DAF80010C1F38101E5
:100EA00002294BD00228286800E040E020F0807042
:100EB000286003D0FFF71EFD04463BE0FFF71AFD54
:100EC000064604E0FFF716FD801B02282FD828688D
:100ED0008001F7D4D4E90962D4E907012E4B570801
:100EE00094F82C20084303EB074343EA8611084398
:100EF00040EA026040F00050C8F80000286840F066
:100F000080702860FFF7F6FC044606E03EE000BF74
:100F1000FFF7F0FC001B022809D828688001F7D5EC
:100F200034E000BFFFF7E6FC001B022802D90320D3
:100F3000BDE8F88F28688001F4D427E00128D8F8AC
:100F4000000021D0E16900F480028A421CD1216AAC
:100F500000F03F028A4217D1626A47F6C071014031
:100F6000B1EB821F10D1A16A4FF0FF3200F4403381
:100F700002EB5101B3EB014F06D194F82C1000F0B5
:100F80007060B0EB016F01D00120D1E70020CFE706
:100F900008380240007000400000FFFF401EB0F122
:100FA000807F10B501D3012010BD4FF0E0246061B7
:100FB0000F21601700F0F4FF0020A06107212161DC
:100FC00010BD704770477047F0B590F83C20012A7B
:100FD0003BD01F4E012480F83C40022280F83D2087
:100FE00002681C4D5368B242D2F808C001D0AA4230
:100FF00003D14F6823F470033B430F6823F0700361
:101000001F4357600268B24213D0B2F1804F10D034
:10101000114B9A420DD0114B9A420AD0104B9A4272
:1010200007D0AA4205D00F4B9A4202D00E4B9A42EB
:1010300004D189682CF0800319439160002180F865
:101040003D4080F83C100846F0BD0220F0BD000095
:10105000000001400004014000040040000800407E
:10106000000C0040004001400018004010B5040092
:1010700003D094F83D0010B107E0012010BD00201E
:1010800084F83C00204600F00DF8022084F83D0072
:101090002068211D00F0A6FD012084F83D000020FD
:1010A00010BD000008B500680B49884212D10B48FA
:1010B000016841F00801016000680022114600F05B
:1010C000080000903220FFF775FCBDE80840322090
:1010D000FFF762BC08BD0000000C00404038024031
:1010E0000168094ACB6843F00103CB600168886856
:1010F0001040062806D0B0F5803F03D0086840F0C5
:1011000001000860002070470700010070B5044628
:1011100090F83C00012817D0324B012584F83C5050
:10112000022084F83D0022689068184020F47F4037
:1011300090600868502830D00DDC20284DD005DCA8
:1011400098B310283BD148E0022070BD302844D02D
:10115000402834D139E0602828D0702806D0B0F576
:10116000805F2CD0B0F5005F29D10AE04A68206882
:10117000D1E9021300F0A9FD2068816841F07701F0
:1011800009E04A682068D1E9021300F09EFD20685A
:10119000816841F48041816011E0CA684968206833
:1011A00000F0DAFE2068502107E016E0CA684968BE
:1011B000206800F0E2FE2068602100F08FFD002032
:1011C00084F83D5084F83C0070BDCA6849682068C6
:1011D00000F0C2FE20684021EFE722680146104679
:1011E000EBE7000088FFFEFF2DE9F04104000D460B
:1011F00003D094F83D0018B108E00120BDE8F0816B
:10120000002084F83C00204600F042F81F4A0220EB
:1012100084F83D0020688168114081602068211DAC
:1012200000F0E0FC226840F20336AF6940F60C4C57
:101230002B684FF2F00EA86891680B439169B14397
:1012400041EA07210843D5E9031720EA0C00D5E954
:10125000076C20EA0E00D2F820E03F0140EA0626A3
:1012600068686D69314347EA0C37936023680F4320
:1012700001229F612EF0AA0141EA0513216818435B
:10128000086284F83D200020B8E70000F8BFFEFFA8
:1012900010B586B0044614216846FEF7E9FF1249EE
:1012A000206888421ED11148016841F002010160A6
:1012B000006800F0020005900C481038016841F009
:1012C0000101016000680021C02200F001000590CA
:1012D00002200092CDE90101CDE9031004486946DE
:1012E000FFF710FA06B010BD00040040403802407D
:1012F0000000024010B50446006891B1042904D0F2
:101300000122002100F0D4FC206801225FF00401DA
:1013100000F0CEFC2068016841F00101016000206E
:1013200010BD01220021F3E7704770B50446006844
:1013300000250169C943890715D4C168C9438907D4
:1013400011D4EA1E0261012121772068806980079B
:10135000204602D0FFF7E8FF04E000F00BF920463A
:1013600000F0D6F9257720680169C943490717D4E9
:10137000C168C943490713D402216FF00402026116
:1013800021772068806910F4407F204602D0FFF763
:10139000CBFF04E000F0EEF8204600F0B9F9257725
:1013A00020680169C943090716D4C168C943090700
:1013B00012D404216FF00802026121772068C0690D
:1013C0008007204602D0FFF7AFFF04E000F0D2F81C
:1013D000204600F09DF9257720680169C943C906B8
:1013E00017D4C168C943C90613D408216FF010028D
:1013F000026121772068C06910F4407F204602D046
:10140000FFF792FF04E000F0B5F8204600F080F905
:10141000257720680169C943C90708D1C168C94354
:10142000C90704D1891E0161204600F099F920689E
:101430000169C943090609D4C168C943090605D42D
:101440006FF0800101612046FFF7BCFD2068016953
:10145000C943C90509D4C168C943090605D46FF455
:10146000807101612046FFF7ACFD20680169C94326
:10147000490609D4C168C943490605D46FF0400143
:101480000161204600F0A0F920680169C94389067E
:101490000BD4C168C943890607D46FF020010161EC
:1014A0002046BDE87040FFF78EBD70BDF0B587B037
:1014B000044614216846FEF7DBFE21680025284813
:1014C0000224284EB1F1804F28D0274A914223D1DF
:1014D000016841F008010160016801F0080105910F
:1014E000016841F0020101600068694600F00200F5
:1014F00005904FF460408DE831001C48CDE903545D
:10150000FFF700F9402069468DE83100CDE903542A
:10151000304600BFFFF7F6F807B0F0BD016841F0B4
:1015200001010160016801F001010591016841F0CC
:101530000201016000680127694600F00200059081
:1015400020208DE831000A48CDE90357FFF7DAF88B
:10155000082069468DE83100CDE903573046D9E7C8
:10156000303802400004024000080040000C0240F5
:1015700000000240704770B5044690F83C000D46EC
:1015800001280ED0012684F83C60022084F83D003A
:101590000C2A45D007DC5AB1042A1BD0082A78D17E
:1015A0002CE0022070BD102A4ED0142A71D15DE0CB
:1015B000206800F09BFB2068816941F0080181618F
:1015C0002068816921F00401816120682A698169AC
:1015D000114311E0206800F0C3FB2068816941F4E9
:1015E000006181612068816921F4806181612068E6
:1015F0002969826942EA012181614AE0206800F09C
:10160000EBFB2068C16941F00801C1612068C16934
:1016100021F00401C16120682A69C169114311E008
:10162000206800F015FC2068C16941F40061C161C7
:101630002068C16921F48061C16120682969C2699B
:1016400042EA0121C16124E0206800F02DFC2068FD
:10165000416D41F0080141652068416D21F00401B0
:10166000416520682A69416D114311E0206800F04E
:1016700047FC2068416D41F4006141652068416D7F
:1016800021F48061416520682969426D42EA0121A7
:101690004165002084F83D6084F83C0070BD10B5C1
:1016A000040003D094F83D0010B107E0012010BD04
:1016B000002084F83C00204600F00CF8022084F85A
:1016C0003D002068211D00F08DFA012084F83D00C6
:1016D000002010BD08B501680B48B1F1804F0BD058
:1016E0000A4A914207D1016841F004010160006893
:1016F00000F00400009008BD016841F001010160A4
:10170000006800F00100F5E74038024000080040A2
:101710007047000010B501220446006800F0C8FAC6
:101720000C492068884202D00B49884203D1416CA1
:1017300041F4004141642068084A8168114006294B
:1017400006D0B1F5803F03D0016841F0010101608E
:10175000002010BD0000014000040140070001000E
:1017600070B500681449884224D1144D01228021AB
:101770002846FFF7B9F81248124C006804F10C0231
:101780006061111F081F94ED000A00F029FCD4EDE0
:10179000030A94ED010A04F1100000F0B9FC20697D
:1017A0000A2100F051F92846BDE87040002280214E
:1017B000FFF79AB870BD0000000C00400004024022
:1017C00024040040040000207047FEE770B586B096
:1017D00014216846FEF74CFD1E48016841F00101E6
:1017E0000160016801F001010591016841F0020109
:1017F0000160016801F002010591016841F00801F2
:10180000016000684FF48145134E002200F008008B
:10181000294605903046FFF767F810490024082054
:101820008DE813000E486946FEF76CFF0120009515
:10183000CDE90104694630460394FEF763FF0022B8
:1018400009201146FFF7B6F80920FFF7A5F806B002
:1018500070BD00003038024000040240000011104A
:101860000000024010B58AB0002468461C2107948D
:1018700008940994FEF7FCFC194820214FF080439E
:1018800040F68B220360C0E90141C0E90324846172
:10189000FFF705FF08B1FEF71AFF114807A90794E3
:1018A0000994FFF791FB08B1FEF711FF602069462C
:1018B000CDE900040A48002202940494FFF75BFE7D
:1018C00008B1FEF704FF064804226946FFF753FEFD
:1018D00008B1FEF7FCFE0248FFF7E8FD0AB010BDB4
:1018E0002C00002030B58DB024216846FEF7C0FCE6
:1018F00016480024144A012109944FF6FF730A94F4
:1019000003250B940260C0E90114C0E9033484612B
:101910000095CDE9014103940494CDE90541694660
:1019200007940894FFF760FC08B1FEF7D0FE074863
:1019300009A909940B94FFF747FB002801D0FEF793
:10194000C6FE0DB030BD0000000400406C00002059
:1019500010B58AB0002468461C21079408940994A5
:10196000FEF786FC22482021204B40F68B220360A4
:10197000C0E90141C0E903248461FFF790FE08B18A
:10198000FEF7A5FE1A4807A907940994FFF71CFB68
:1019900008B1FEF79CFE60206946CDE900041448BA
:1019A000002202940494FFF7E6FD08B1FEF78FFED3
:1019B0000F4804226946FFF7DEFD08B1FEF787FEF7
:1019C0000B4808226946FFF7D6FD08B1FEF77FFEF7
:1019D00007480C226946FFF7CEFD08B1FEF777FEF7
:1019E0000348FFF763FD0AB010BD00000008004087
:1019F000AC00002010B588B0114800240F49D72250
:101A0000009418230194029403940494059406947A
:101A100080E81600C0E903348461FFF727FB4FF428
:101A20008050009006486946FFF770FB044804A9FF
:101A300004940694FFF7C8FA08B010BD000C0040EB
:101A4000EC000020FEE77047F0B56C22254E01281F
:101A500001FB02F106F104044FF0000204F1040559
:101A60004FF0804305F104070ED0022815D003285B
:101A700019D0042820D0052824D0062829D05A635C
:101A80009A633260226005E0C1F1640059639A6391
:101A9000326020602A603A60F0BD5963C1F1640091
:101AA0009A63326004E05A63C1F164009A63316062
:101AB00022602A603860F0BDC1F164005A63986307
:101AC0003160DFE7C1F164005A63986332602260DD
:101AD00005E0C1F164005A639A63326020602960B6
:101AE000D9E70000340800400F48002110B5FFF787
:101AF00011FE0D480421FFF70DFE0B480021803038
:101B0000FFF708FE084804218030FFF703FE06486F
:101B100008218030FFF7FEFD03480C21BDE810408E
:101B20008030FFF7F7BD00002C00002070477047A1
:101B3000FEF7E6BE30B593B030216846FEF798FB5D
:101B400014210CA8FEF794FB1A48016841F080515B
:101B50000160006800F0805011901748016841F45E
:101B600040410160006800250DF1200C0224009422
:101B700000F4404011900822D823CDE906451021F9
:101B80008CE81C0001200B94CDE903016846FFF7A7
:101B900043F8FEF741FFE2024FF4A0510F20CDE9D8
:101BA0000F120CAA072182E831000CA8FEF76AFF89
:101BB00013B030BD403802400070004005484FF07F
:101BC00000610368034A43F470030360803A1160C4
:101BD0007047000088ED00E00148FFF7A6BB000059
:101BE000EC000020F0B5274B4FF0804E264D0268E8
:101BF0009842264E264F274C09D0704507D0A84260
:101C000005D0B04203D0B84201D0A04205D1D1F8EE
:101C100004C022F070024CEA020298421BD07045C8
:101C200019D0A84217D0B04215D0B84213D0A04264
:101C300011D0194DA8420ED0184DA8420BD0184D06
:101C4000A84208D0174DA84205D0174DA84202D08F
:101C5000164DA84203D1CD6822F440722A434D6943
:101C600022F080022A43026098428A68C2620A68AF
:101C7000826201D0A04201D1096901630121416161
:101C8000F0BD0000000001400004004000080040DA
:101C9000000C0040000401400040014000440140AD
:101CA0000048014000180040001C00400020004097
:101CB00010B5046A012301F01F018B409C430462AC
:101CC0008A40016A1143016210BD42EA032283681F
:101CD0000A4323F47F410A4382607047826822F0FE
:101CE00070020A4342F0070181607047F0B5026A52
:101CF000DFF860C0184F22F00102DFF860E00262F6
:101D0000066A4268836926F002060D68B8428C684C
:101D100003EA0C0323F0030344EA060445EA03053F
:101D200001D0704505D1CB6824F00804234323F08B
:101D30000404B84201D0704505D122F44076D1E9BF
:101D4000053233431A434260856149684163046246
:101D5000F0BD00008FFFFEFF0000014000040140C5
:101D6000F0B5026A194E1A4C22F01002DFF864E056
:101D70000262056A4368826925F02005D1F808C02F
:101D8000A0420F6802EA060222F4407245EA0C15EE
:101D900042EA072201D0704506D1CE6825F08005C1
:101DA00045EA061525F04005A04201D0704507D14F
:101DB000D1E9054623F4406343EA840343EA8603FA
:101DC00043608261496881630562F0BDFF8FFFFE59
:101DD0000000014000040140F0B5026A194F1A4E9C
:101DE00022F48072DFF864E00262056A4368C26927
:101DF00025F40075D1F808C0B0420C6802EA070269
:101E000022F0030245EA0C2544EA020401D07045A1
:101E100006D1CF6825F4006242EA072222F48065E9
:101E2000B04201D0704507D123F44052D1E90536C4
:101E300042EA031242EA06134360C4614968C1637F
:101E40000562F0BD8FFFFEFF00000140000401406D
:101E5000F0B5026A124B114F22F48052984202628E
:101E6000046A4268C36924F400548E680D6803EA6A
:101E7000070323F4407344EA063443EA052302D0FF
:101E8000084DA84204D14D6922F4804242EA8512ED
:101E90004260C361496801640462F0BDFF8FFFFEC8
:101EA0000000014000040140F0B5026ADFF844C0C0
:101EB00022F480320262056A4268446D25F40035DE
:101EC0000E8960450C4F0B6804EA070445EA064595
:101ED00043EA040302D0094CA04204D14C6922F425
:101EE000803242EA042242604365496881650562A6
:101EF000F0BD0000000001408FFFFEFF0004014024
:101F0000F0B5026ADFF844C022F480120262046A6B
:101F10004268436D24F400140E8960450C4F0D682F
:101F200003EA070344EA065443EA052302D0094DB5
:101F3000A84204D14D6922F4802242EA85224260FF
:101F400043654968C1650462F0BD000000000140BE
:101F5000FF8FFFFE0004014010B5036A046A23F0FE
:101F60000A0324F00104046284690B4324F0F001A5
:101F700041EA02118161036210BD10B5036A23F0CA
:101F8000100303628369046A23F4704324F0A004FD
:101F900043EA0232826144EA0111016210BDFEE7A8
:101FA000090700284FEA116104DB00F1E02080F806
:101FB0000014704700F00F0000F1E02080F8141DBD
:101FC000704702E008C8121F08C1002AFAD1704702
:101FD0007047002001E001C1121F002AFBD17047A9
:101FE0002DE9F04104462A4817462A4A0D462DEDB0
:101FF000028B016800EE101AB8EE400A10EE101ABB
:10200000914201DDC11405E010EE101AB1F18A4FC2
:1020100001DD0021016010EE100AFEF74DFA9FED80
:102020001E1B53EC112BFEF7D5F9FEF758FA00EE04
:10203000100AB2EE001A1A4820EE011A85ED000AC5
:10204000DFED180A84ED001A006895ED000A184EBD
:1020500090ED001A9FED148B30EE410A20EE200A1D
:1020600087ED000A95ED000A80ED000A206808E07F
:10207000FEF722FA53EC182BFEF7A6F9FEF72FFA1B
:102080002060B042F4DABDEC028BBDE8F0810000C4
:102090002404004000E87D47E25B5837DE1D693FBD
:1020A0000000002000409C461F85EB51B81E1940DF
:1020B000C3F5C8400149002008607047240400406F
:1020C0000548002110B5FFF715F9BDE8104002489A
:1020D0000421FFF70FB900006C000020FEF718FC88
:1020E000FFF728FDFFF772FBFFF7BCFBFFF7FAFBDA
:1020F000FFF72EFCFFF77EFC0448FEF7F1FFFFF729
:10210000DFFFFFF7D7FFFFF7EFFCFEE7EC00002053
:10211000B5EEC00A4FF00601F1EE10FA10B506DB7D
:1021200010EE102A1D4B9A4201DA016010BD1B4CC3
:1021300010EE102A1A4B644222449A4201D2012125
:10214000F3E710EE102A174B174C1A44A24201D2A3
:102150000221EAE710EE102A144B154C1A44A24251
:1021600001D80321E1E710EE102A124C124B224451
:102170009A4201D80421D8E710EE102A0F4C104BD8
:1021800022449A4201D20521CFE710EE102A0D4CCD
:102190000D4B22449A42C8D310BD00001904063FDB
:1021A0009A08C3004DF336C073805E00DA72D8BF60
:1021B00036024300006F95BFB4372C004B3769BF20
:1021C0001E8521002DB247BFF0A7100000000000BF
:1021D000000000000102030406070809FC210008B2
:1021E000000000202C000000C21F00082822000868
:1021F0002C00002004050000D21F00080000000091
:1022000000000000000000000000000000000000CE
:1022100000000000000000000100000010000000AD
:08222000000000000024F4009E
:04000005080001C925
:00000001FF
